{
  "contractName": "ChainList",
  "abi": [
    {
      "constant": true,
      "inputs": [
        {
          "name": "",
          "type": "uint256"
        }
      ],
      "name": "articles",
      "outputs": [
        {
          "name": "id",
          "type": "uint256"
        },
        {
          "name": "seller",
          "type": "address"
        },
        {
          "name": "buyer",
          "type": "address"
        },
        {
          "name": "name",
          "type": "string"
        },
        {
          "name": "description",
          "type": "string"
        },
        {
          "name": "price",
          "type": "uint256"
        }
      ],
      "payable": false,
      "stateMutability": "view",
      "type": "function"
    },
    {
      "anonymous": false,
      "inputs": [
        {
          "indexed": true,
          "name": "_id",
          "type": "uint256"
        },
        {
          "indexed": true,
          "name": "_seller",
          "type": "address"
        },
        {
          "indexed": false,
          "name": "_name",
          "type": "string"
        },
        {
          "indexed": false,
          "name": "_price",
          "type": "uint256"
        }
      ],
      "name": "LogSellArticle",
      "type": "event"
    },
    {
      "anonymous": false,
      "inputs": [
        {
          "indexed": true,
          "name": "_id",
          "type": "uint256"
        },
        {
          "indexed": true,
          "name": "_seller",
          "type": "address"
        },
        {
          "indexed": true,
          "name": "_buyer",
          "type": "address"
        },
        {
          "indexed": false,
          "name": "_name",
          "type": "string"
        },
        {
          "indexed": false,
          "name": "_price",
          "type": "uint256"
        }
      ],
      "name": "LogBuyArticle",
      "type": "event"
    },
    {
      "constant": false,
      "inputs": [],
      "name": "kill",
      "outputs": [],
      "payable": false,
      "stateMutability": "nonpayable",
      "type": "function"
    },
    {
      "constant": false,
      "inputs": [
        {
          "name": "_name",
          "type": "string"
        },
        {
          "name": "_description",
          "type": "string"
        },
        {
          "name": "_price",
          "type": "uint256"
        }
      ],
      "name": "sellArticle",
      "outputs": [],
      "payable": false,
      "stateMutability": "nonpayable",
      "type": "function"
    },
    {
      "constant": true,
      "inputs": [],
      "name": "getNumberOfArticles",
      "outputs": [
        {
          "name": "",
          "type": "uint256"
        }
      ],
      "payable": false,
      "stateMutability": "view",
      "type": "function"
    },
    {
      "constant": true,
      "inputs": [],
      "name": "getArticlesForSale",
      "outputs": [
        {
          "name": "",
          "type": "uint256[]"
        }
      ],
      "payable": false,
      "stateMutability": "view",
      "type": "function"
    },
    {
      "constant": false,
      "inputs": [
        {
          "name": "_id",
          "type": "uint256"
        }
      ],
      "name": "buyArticle",
      "outputs": [],
      "payable": true,
      "stateMutability": "payable",
      "type": "function"
    }
  ],
  "bytecode": "0x6060604052336000806101000a81548173ffffffffffffffffffffffffffffffffffffffff021916908373ffffffffffffffffffffffffffffffffffffffff160217905550610c14806100536000396000f300606060405260043610610078576000357c0100000000000000000000000000000000000000000000000000000000900463ffffffff1680631cc4baa81461007d57806341c0e1b5146100955780637f6be3da146100aa57806389da85d314610114578063d26095151461013d578063edcfafe6146101e6575b600080fd5b610093600480803590602001909190505061039c565b005b34156100a057600080fd5b6100a8610684565b005b34156100b557600080fd5b6100bd610719565b6040518080602001828103825283818151815260200191508051906020019060200280838360005b838110156101005780820151818401526020810190506100e5565b505050509050019250505060405180910390f35b341561011f57600080fd5b610127610885565b6040518082815260200191505060405180910390f35b341561014857600080fd5b6101e4600480803590602001908201803590602001908080601f0160208091040260200160405190810160405280939291908181526020018383808284378201915050505050509190803590602001908201803590602001908080601f0160208091040260200160405190810160405280939291908181526020018383808284378201915050505050509190803590602001909190505061088f565b005b34156101f157600080fd5b6102076004808035906020019091905050610ab5565b604051808781526020018673ffffffffffffffffffffffffffffffffffffffff1673ffffffffffffffffffffffffffffffffffffffff1681526020018573ffffffffffffffffffffffffffffffffffffffff1673ffffffffffffffffffffffffffffffffffffffff16815260200180602001806020018481526020018381038352868181546001816001161561010002031660029004815260200191508054600181600116156101000203166002900480156103045780601f106102d957610100808354040283529160200191610304565b820191906000526020600020905b8154815290600101906020018083116102e757829003601f168201915b50508381038252858181546001816001161561010002031660029004815260200191508054600181600116156101000203166002900480156103875780601f1061035c57610100808354040283529160200191610387565b820191906000526020600020905b81548152906001019060200180831161036a57829003601f168201915b50509850505050505050505060405180910390f35b6000806002541115156103ae57600080fd5b6000821180156103c057506002548211155b15156103cb57600080fd5b60016000838152602001908152602001600020905060008160020160009054906101000a900473ffffffffffffffffffffffffffffffffffffffff1673ffffffffffffffffffffffffffffffffffffffff1614151561042957600080fd5b8060010160009054906101000a900473ffffffffffffffffffffffffffffffffffffffff1673ffffffffffffffffffffffffffffffffffffffff163373ffffffffffffffffffffffffffffffffffffffff161415151561048857600080fd5b80600501543414151561049a57600080fd5b338160020160006101000a81548173ffffffffffffffffffffffffffffffffffffffff021916908373ffffffffffffffffffffffffffffffffffffffff1602179055508060010160009054906101000a900473ffffffffffffffffffffffffffffffffffffffff1673ffffffffffffffffffffffffffffffffffffffff166108fc349081150290604051600060405180830381858888f19350505050151561054157600080fd5b8060020160009054906101000a900473ffffffffffffffffffffffffffffffffffffffff1673ffffffffffffffffffffffffffffffffffffffff168160010160009054906101000a900473ffffffffffffffffffffffffffffffffffffffff1673ffffffffffffffffffffffffffffffffffffffff16837f5d28bc06e6f0c45405abfe77bd77236c767f9bd9d044ae2d954a415a2b4823e084600301856005015460405180806020018381526020018281038252848181546001816001161561010002031660029004815260200191508054600181600116156101000203166002900480156106715780601f1061064657610100808354040283529160200191610671565b820191906000526020600020905b81548152906001019060200180831161065457829003601f168201915b5050935050505060405180910390a45050565b6000809054906101000a900473ffffffffffffffffffffffffffffffffffffffff1673ffffffffffffffffffffffffffffffffffffffff163373ffffffffffffffffffffffffffffffffffffffff161415156106df57600080fd5b6000809054906101000a900473ffffffffffffffffffffffffffffffffffffffff1673ffffffffffffffffffffffffffffffffffffffff16ff5b610721610b2f565b610729610b2f565b600080610734610b2f565b60006002546040518059106107465750595b9080825280602002602001820160405250945060009350600192505b6002548311151561080b5760006001600085815260200190815260200160002060020160009054906101000a900473ffffffffffffffffffffffffffffffffffffffff1673ffffffffffffffffffffffffffffffffffffffff1614156107fe57600160008481526020019081526020016000206000015485858151811015156107e757fe5b906020019060200201818152505083806001019450505b8280600101935050610762565b836040518059106108195750595b90808252806020026020018201604052509150600090505b8381101561087a57848181518110151561084757fe5b90602001906020020151828281518110151561085f57fe5b90602001906020020181815250508080600101915050610831565b819550505050505090565b6000600254905090565b60026000815480929190600101919050555060c06040519081016040528060025481526020013373ffffffffffffffffffffffffffffffffffffffff168152602001600073ffffffffffffffffffffffffffffffffffffffff168152602001848152602001838152602001828152506001600060025481526020019081526020016000206000820151816000015560208201518160010160006101000a81548173ffffffffffffffffffffffffffffffffffffffff021916908373ffffffffffffffffffffffffffffffffffffffff16021790555060408201518160020160006101000a81548173ffffffffffffffffffffffffffffffffffffffff021916908373ffffffffffffffffffffffffffffffffffffffff16021790555060608201518160030190805190602001906109c7929190610b43565b5060808201518160040190805190602001906109e4929190610b43565b5060a082015181600501559050503373ffffffffffffffffffffffffffffffffffffffff166002547fe2ebb0c522a8b90a93f45a5dfd3c0e0516b81519fdf199efe51c474642fe8cec85846040518080602001838152602001828103825284818151815260200191508051906020019080838360005b83811015610a75578082015181840152602081019050610a5a565b50505050905090810190601f168015610aa25780820380516001836020036101000a031916815260200191505b50935050505060405180910390a3505050565b60016020528060005260406000206000915090508060000154908060010160009054906101000a900473ffffffffffffffffffffffffffffffffffffffff16908060020160009054906101000a900473ffffffffffffffffffffffffffffffffffffffff1690806003019080600401908060050154905086565b602060405190810160405280600081525090565b828054600181600116156101000203166002900490600052602060002090601f016020900481019282601f10610b8457805160ff1916838001178555610bb2565b82800160010185558215610bb2579182015b82811115610bb1578251825591602001919060010190610b96565b5b509050610bbf9190610bc3565b5090565b610be591905b80821115610be1576000816000905550600101610bc9565b5090565b905600a165627a7a72305820d6a4837bf280c47f9ebfd369284346b2e2e2cff309a028b1aad60d0f4b302f3e0029",
  "source": "pragma solidity ^0.4.18;\n\n// Import contract for inheritance purposes\nimport \"./Ownable.sol\";\n\n// append \"is Ownable\" to inherit from parent contract\ncontract ChainList is Ownable {\n\n  // It is crucial and highly recommended to invoke Self Destruct by owner only; the account that deployed the contracts\n  // This will de-activate contracts and it will irreversible with all variables becoming unavailable\n\n  // Custom types to store a list of articles for sale\n  struct Article {\n    uint id; // identify each article in the associated array\n\n    address seller;\n    address buyer;\n    string name;\n    string description;\n    uint256 price; // amount in Wei 256 bits\n  }\n  // compiler generates articles function with no argument but returns the 6 values like the following:\n  // function articles(uint_id) public returns (\n  // uint id,\n  // address seller,\n  // address buyer,\n  // string name,\n  // string description,\n  // uint256 price; // amount in Wei 256 bits\n  // ) {\n  // id = articles[_id].id;\n  // seller = articles[_id].seller;\n  // buyer = articles[_id].buyer;\n  // name = articles[_id].name;\n  // description = articles[_id].description;\n  // price = articles[_id].price;\n  // }\n\n  // state variables\n  mapping (uint => Article) public articles; // store a list of articles, getter is set and not setter\n  // mapping cannot be iterated and do not know which keys are set or not\n  // articleCounter helps to keep track of size of mapping and which key should have an associated value\n  uint articleCounter; // same as uint256\n\n  // Saving the owner address for self destruct function\n  // address owner; // can be removed because it is stored in parent contract \"Ownable\"\n\n  // Define constructor called once to initialize default article when contract is deployed to the blockchain\n  // constructor format has same name as contract, might not have arguments, no return value\n  // This test constructor is used before we adapt the web page for selling an article\n  //function ChainList() public {\n    // 1 ETH, 18 zeros\n    // sellArticle(\"Default article\", \"This is an article set by default\", 1000000000000000000);\n  //}\n\n  // Events\n  event LogSellArticle(\n    // Include a new id for identifying multiple articles\n    uint indexed _id,\n    address indexed _seller, // able to filter events by value of seller address on client side, indexed aka keys\n    string _name,\n    uint256 _price\n  );\n\n  event LogBuyArticle(\n    // Include a new id for identifying multiple articles\n    uint indexed _id,\n    address indexed _seller, // able to filter events by value of seller address on client side, indexed aka keys\n    address indexed _buyer, // watch only event specific to them\n    string _name,\n    uint256 _price\n  );\n\n  // modifiers with no return value\n  // modifier onlyOwner() {\n  //  require(msg.sender == owner);\n  //  _; // _ is the placeholder whereby it represents the code when the modifier is applied to\n  // }\n  // function modifier has been declared in the parent contract \"Ownable\" so it can be removed\n\n  // Constructor, function has the same name as contract, called only once when contract is deployed\n  // function ChainList() public {\n  //   owner = msg.sender; // Save address of the owner deploying the contract\n  // }\n  // constructor has been declared in the parent contract \"Ownable\" so it can be removed\n\n  // De-activate the contracts\n  function kill() public onlyOwnerParent {\n    // only allow the contract owner to de-activate; check the caller of function\n    // This protection is good because the private key of user is used to sign the transaction which is kept securely\n    // The following require line can be omitted with the onlyOwner modifier included above\n    // It combines the modifier code with this function and the main objective is for the function to focus on the code\n    // intentions and reuse generated pieces of code. Function Modifier offers basic aspect implementations.\n    // require(msg.sender == owner); // Otherwise exception must be thown and execution of function is interrupted\n\n    selfdestruct(owner); // refund the remainging funds in the contract\n  }\n\n  // sell an article\n  function sellArticle(string _name, string _description, uint256 _price) public {\n    // seller = msg.sender;\n    // name = _name;\n    // description = _description;\n    // price = _price;\n    // Adapt the above for selling multiple articles for different sellers\n\n    // a new articleCounter\n    // Increment the articleCounter\n    articleCounter++;\n\n    // Store this article inside article mapping with initializer for structure type\n    articles[articleCounter] = Article(\n      articleCounter,\n      msg.sender,\n      0x0,\n      _name,\n      _description,\n      _price\n    );\n\n    // Trigger the event\n    // add an ID to the LogSellArticle event\n    // LogSellArticle(seller, name, price);\n    LogSellArticle(articleCounter, msg.sender, _name, _price);\n  }\n\n  // get an article\n  // No longer required as we can get from the mapping getter\n  // function getArticle() public view returns (\n  //  address _seller,\n    // include buyer information\n  //  address _buyer,\n  //  string _name,\n  //  string _description,\n  //  uint256 _price\n  //  ) {\n  //  return(seller, buyer, name, description, price);\n  // }\n\n  // Fetch the current number of articles in the contract\n  function getNumberOfArticles() public view returns (uint) {\n    return articleCounter;\n  }\n\n  // Fetch and return all article IDs for articles that are still for sale\n  // view function does not cost any gas and no state variables will be modified\n  // Currently, solidity does not allow function to return struct so we have to use the Ids for identifying articles\n  function getArticlesForSale() public view returns (uint[]) {\n    // Prepare output array, we specify to store in memory rather than storage which is expensive\n    uint[] memory articleIds = new uint[](articleCounter);\n    uint numberOfArticlesForSale = 0;\n    // Iterate over articles\n    for (uint i = 1; i <= articleCounter; i++) {\n      // Keep the ID if the article is still available for sellArticle\n      // mapping articles start from index 1 and array starts from index 0\n      if (articles[i].buyer == 0x0) {\n        articleIds[numberOfArticlesForSale] = articles[i].id;\n        numberOfArticlesForSale++;\n      }\n    }\n\n    // Copy the articleIds array into a smaller forSale array\n    uint[] memory articlesForSale = new uint[](numberOfArticlesForSale);\n    for (uint j = 0; j < numberOfArticlesForSale; j++) {\n      articlesForSale[j] = articleIds[j];\n    }\n    return articlesForSale;\n  }\n\n  // buy an article\n  // function marked as payable so that caller can send ETH value to it; otherwise, cannot receive value from caller\n  // Change to support buying multiple articles, need to identify which article to buy\n  // function buyArticle() payable public {\n  function buyArticle(uint _id) payable public {\n    // Consider Local variables to store struct variables\n    //address seller;\n    //address buyer;\n    //string name;\n    //string description;\n    //uint256 price;\n\n\n    // Check whether there is an article for sale\n    // require(seller != 0x0);\n    // Instead check whether any article is for sale as seller field does not appear the contract any more, it is in the struct\n    // Do not need to check whether article has seller anymore because the only way to have the article added in the article list\n    // is by sellArticle function that sets the seller value of the article\n    // Contract initialize with articleCounter = 0\n    require(articleCounter > 0);\n    // Check that article exists\n    require(_id > 0 && _id <= articleCounter);\n    // Identify article and retrieve it from the mapping before storing in the storage pointer\n    // so that in future modification of the field of this variable, it wiil be stored in the contract state\n    // storage is the default for store complex type local variable like this\n    // explicit definition here otherwise the compiler will complain\n    Article storage article = articles[_id];\n\n    // Check that the article has not been sold yet\n    // require(buyer == 0x0);\n    require(article.buyer == 0x0);\n\n    // Don't allow the seller to buy his own article\n    // require(msg.sender != seller);\n    require(msg.sender != article.seller);\n\n    // Check that the value sent corresponds to the price of the article\n    // require(msg.value == price);\n    require(msg.value == article.price);\n\n    // Store the buyer's information\n    // Good practice to update contract state before actual sending money even if reversal is required when transfer does not go through\n    // This is to avoid certain re-entrance problem\n    // buyer = msg.sender;\n    article.buyer = msg.sender;\n\n    // Buyer can then pay seller directly\n    // seller.transfer(msg.value);\n    article.seller.transfer(msg.value);\n\n    // Trigger the buyer event; notify watcher\n    // LogBuyArticle(seller, buyer, name, price);\n    LogBuyArticle(_id, article.seller, article.buyer, article.name, article.price);\n\n    // Several ways to interrupt contract function execution namely throw, assert, require and revert\n    // All of them have basic consequences when the condition fails:\n    // (1) value gets refunded;\n    // (2) state changes reverted;\n    // (3) function interrupted, no more gas will be spent;\n    // (4) gas up to that point spent is not refunded;\n    // (5) REVERT opcode is returned (aka throw an exception)\n    // Note : They provide possibility of roll-back and make contract function atomic\n    // throw = legacy (baackward compatibility)\n    // assert = interal errors (bugs in the contract)\n    // require = preconditions (conditions tested)\n    // revert = imperative exceptions (for interrupt function execution, condition is more sophisticated then preconditions)\n    // certain instructions can interrupt execution of function with similar behaviours like the above\n    // address type has 2 methods to send value to account; namely send (need to check return value and do explicit revert if needed);\n    // and transfer functions (automatically throws revert style exception in contract if value transfer fails)\n    // (eg. balance from transfer account is not large enough)\n    // In the case of, divide by zero or out-of-bound array access, assert style exception will be triggered\n    // Any smart contract has its own cryptocurrency balance just like any other account.\n    // In Ethereum, there are 2 types of accounts External account (key-value pairs can be used by human users);\n    // and Contract account for deploying contracts\n    // Attached value to transaction calling a payable function on a contract means transferring cryptocurrency from balance of sender\n    // to balance of corresponding contract.  Any code of the contract can spend value from its balance by sending/transferring\n    // to another account or keep it for later use.\n    // seller.transfer(msg.value) means transfer value from balance of the contract to the seller account with the amount of msg.value\n  }\n}\n",
  "sourcePath": "/Users/samaujs/MacAir 2013/Year 2018/Ethereum/ChainSkills/Training/chainlist/contracts/ChainList.sol",
  "compiler": {
    "name": "solc",
    "version": "0.4.19+commit.c4cbbb05.Emscripten.clang"
  },
  "schemaVersion": "2.0.0",
  "updatedAt": "2018-04-16T04:09:07.178Z"
}